:100000000C945C000C9479000C9479000C947900A9
:100010000C9479000C9479000C9479000C9479007C
:100020000C9479000C9479000C9479000C9479006C
:100030000C9479000C9479000C9479000C9479005C
:100040000C94A0000C9479000C9479000C94790025
:100050000C9479000C9479000C9479000C9479003C
:100060000C9479000C947900000000002400270013
:100070002A0000000000250028002B0004040404CE
:100080000404040402020202020203030303030342
:10009000010204081020408001020408102001021F
:1000A00004081020000000080002010000030407FB
:1000B000000000000000000011241FBECFEFD8E0B8
:1000C000DEBFCDBF11E0A0E0B1E0EEE0F4E002C0A1
:1000D00005900D92AC38B107D9F721E0ACE8B1E05A
:1000E00001C01D92AB39B207E1F70E94EA000C94FF
:1000F00005020C9400003FB7F8948091970190910D
:100100009801A0919901B0919A0126B5A89B05C0CC
:100110002F3F19F00196A11DB11D3FBFBA2FA92F86
:10012000982F8827820F911DA11DB11DBC01CD0103
:1001300042E0660F771F881F991F4A95D1F70895EF
:100140001F920F920FB60F9211242F933F938F930C
:100150009F93AF93BF938091930190919401A0914D
:100160009501B09196013091920123E0230F2D3734
:1001700020F40196A11DB11D05C026E8230F0296AB
:10018000A11DB11D2093920180939301909394013E
:10019000A0939501B0939601809197019091980159
:1001A000A0919901B0919A010196A11DB11D809372
:1001B000970190939801A0939901B0939A01BF91F0
:1001C000AF919F918F913F912F910F900FBE0F9004
:1001D0001F901895789484B5826084BD84B5816041
:1001E00084BD85B5826085BD85B5816085BD809102
:1001F0006E00816080936E0010928100809181007A
:100200008260809381008091810081608093810071
:10021000809180008160809380008091B100846033
:100220008093B1008091B00081608093B000809194
:100230007A00846080937A0080917A008260809353
:100240007A0080917A00816080937A0080917A00B0
:10025000806880937A001092C10081E090E09093D2
:100260008D0180938C0180918C0190918D0188305B
:10027000910524F59927FC01E057FF4F2491FC01DB
:10028000E458FF4F8491882399F090E0880F991FDC
:10029000FC01E859FF4FA591B491FC01EE58FF4FC6
:1002A000859194918FB7F894EC91E22BEC938FBFEA
:1002B00080918C0190918D010196D1CF4CEA242E32
:1002C00040E0342E58E9852E50E0952EC4E8D0E069
:1002D00000E010E067E0A62EB12C10929101109280
:1002E000900120919001309191012A3031050CF05C
:1002F00085C0B0928F01A0928E01F1018491F4012A
:100300009491FE015491552309F447C02F5F3F4F4C
:10031000FEE0F29FD001F39FB00D1124A050BF4F1B
:100320002C91882339F1833091F038F48130A9F091
:10033000823001F584B58F7D12C0873091F088300E
:10034000A1F08430B9F4809180008F7D03C080914A
:1003500080008F77809380000DC084B58F7784BD37
:1003600009C08091B0008F7703C08091B0008F7D6D
:100370008093B000E52FF0E0EE0FFF1FEE58FF4F27
:10038000A591B4913FB7F8948C91211103C0909539
:10039000982301C0982B9C933FBF0E947B002B01A8
:1003A0003C0188EEC82E83E0D82EE12CF12C0E946F
:1003B0007B00DC01CB0184199509A609B709883EA9
:1003C0009340A105B10598F321E0C21AD108E108D4
:1003D000F10848EE440E43E0541E611C711CC11428
:1003E000D104E104F10419F78091900190919101F9
:1003F0000196909391018093900173CF011511059F
:0E04000009F46BCF0E94000068CFF894FFCF84
:10040E0001000100010001000100010000000000D8
:10041E0001000100000000000000000000000100CB
:10042E0001000000000000000000010001000100BA
:10043E0001000000000001000000010001000000AA
:10044E000000010001000100000001000100000099
:10045E000100010001000000010001000100010087
:10046E00010001000100010000000000000000007A
:10047E000100010001000100010001000100010066
:0C048E000100010001000000010001005D
:00000001FF
